:10000000CFEF01F00000000000EF00F00000000062
:0A0010000000000000000000F3D71C
:0C001C003A0E0D6E0D2EFED700001200F3
:10002800C30EC21640C000F00036009000360090A3
:100038000050C212EFDFC282C2A201D0FDD7C4CFE6
:0E00480001F0006AC3500012000E01121200F7
:100056000B6A0A6A096A00500402F4CF09F0F3CF6A
:1000660008F001500502F4CF0BF0F3CF0AF0005070
:100076000502F3500926F4500A22E86A0B220150C1
:100086000402F3500926F4500A22E86A0B2208C03B
:1000960000F009C001F00AC002F00BC003F0120024
:1000A600ACA21200FF0E2F1802E1FF0E2E1802E17D
:1000B600AD6A11D0230E2E24006E000E2F20016E85
:1000C60000C0E9FF01C0EAFFEECFADFF00C0E1FFCF
:1000D60001C0E2FFE66A2E4A2F2A800E2F18006E14
:1000E600800E005C02E10B0E2E5C04E3FF0E2E6E0A
:0600F600FF0E2F6E120048
:1000FC000900F5CFE6FF0006FBE10106F9E112006D
:10010C00FF0E156EFF0E166EFF0E176EFF0E186E9D
:10011C00FF0E196EFF0E1A6E000E1B6E000E1C6E7B
:10012C00FF0E306EFF0E316E000E326E000E336E0F
:10013C00FF0E346EFF0E356E000E366E000E376EEF
:10014C00AC8A900EAB6E948E949C9EAA03D0AECFCC
:06015C0000F0FBD71200C9
:10016200280E1F6E000E206E400E216E000E226EB3
:0C017200C26A070EC012C08EC2801200CC
:10017E001DC000F01EC001F0070E046E000E056ECD
:10018E0063DF00C03EF001C03FF00A0E406E45DF57
:10019E0000503E241D6E01503F201E6E030E006E59
:1001AE00005005E01E321D321E9EFF0FFAD73C6A2C
:1001BE003D6A800E3D18006E800E005C02E10B0E53
:1001CE003C5CD8B0E4D0000E3D1802E1090E3C189C
:1001DE0040E13CC040F021DF00C03AF001C03BF0EE
:1001EE0000C002F001C003F003320232039E03BCD2
:1001FE00038E03320232039E03BC038E02C03AF01A
:10020E0003C03BF0800E006E800E0318005C02E10E
:10021E000250000804E3010E3A6E000E3B6E230EF0
:10022E003C24D96E000E3D20DA6EDECF01F0800E3A
:10023E00006E800E3B18005C02E13A50015C08E251
:10024E00230E3C24E16E000E3D20E26E3AC0E6FF26
:10025E009AD0000E3D1802E10A0E3C1838E1036AEE
:10026E0082B0032A040E026E03C000F0000E016E6F
:10027E00025005E0003600900136FF0FFAD7010E4E
:10028E000010046E01C005F0000E0512036A82B262
:10029E00032A050E026E03C000F0000E016E02501E
:1002AE0005E0003600900136FF0FFAD70450001219
:1002BE000550011200C03AF001C03BF0230E3C2461
:1002CE00E16E000E3D20E26E00C0E6FF5CD03CC049
:1002DE0040F0A3DE00C03AF001C03BF01D50005CC0
:1002EE00026E1E500158036E02C03AF003C03BF07E
:1002FE00800E0318006E800E005C02E1000E025CA0
:10030E0002E23A6A3B6A3AC001F03BC002F00232A6
:10031E000132029E02BC028E01C03AF002C03BF0D6
:10032E00800E006E800E0218005C02E10150FF0884
:10033E0004E2FF0E3A6E000E3B6E800E006E800ED3
:10034E003B18005C02E13A50000804E3010E3A6EDD
:10035E00000E3B6E230E3C24D96E000E3D20DA6E4D
:10036E00DECF01F0800E006E800E3B18005C02E1C5
:10037E003A50015C08E2230E3C24E16E000E3D2053
:10038E00E26E3AC0E6FF88DE3C4A3D2A12D71200E2
:10039E00FF0E926EFF0E966EFF0E936EBF0E946E54
:1003AE00FE0E956E816A806A826A836AF26AF18EA7
:1003BE00F098F096F00ED36E9B8CC280C16A350E0B
:1003CE00C06ED56A100EAF6EAC8499DE240EAC6E84
:1003DE00C1DE386A396A800E3918006E800E005CF4
:1003EE0002E10B0E385C0AE2230E3824E16E000E99
:1003FE003920E26EE66A384A392AEDD7FF0E2E6EA4
:10040E00FF0E2F6E0A0E406E08DE00C01DF001C0FA
:10041E001EF08380090E0B6E1E0E0C6EE40E0D6E1A
:10042E000D2EFED70C2EFCD70B2EFAD70000839084
:10043E00090E0B6E1E0E0C6EE40E0D6E0D2EFED7FB
:10044E000C2EFCD70B2EFAD700008380090E0B6EF4
:10045E001E0E0C6EE40E0D6E0D2EFED70C2EFCD75E
:10046E000B2EFAD700008390090E0B6E1E0E0C6E2B
:10047E00E40E0D6E0D2EFED70C2EFCD70B2EFAD7DA
:10048E0000008380090E0B6E1E0E0C6EE40E0D6EB8
:10049E000D2EFED70C2EFCD70B2EFAD70000839014
:1004AE00090E0B6E1E0E0C6EE40E0D6E0D2EFED78B
:1004BE000C2EFCD70B2EFAD700008380090E0B6E84
:1004CE001E0E0C6EE40E0D6E0D2EFED70C2EFCD7EE
:0C04DE000B2EFAD700004CDEFED7FFD733
:020000040030CA
:0D00010008191AFF0080FF3FC03FE03F409C
:00000001FF
