:1000000070EF01F00000000000EF00F000000000C1
:0A0010000000000000000000F3D71C
:10001C00ACA21200FF0E261802E1FF0E251802E119
:10002C00AD6A11D0190E2524006E000E2620016E2B
:10003C0000C0E9FF01C0EAFFEECFADFF00C0E1FF59
:10004C0001C0E2FFE66A254A262A800E2618006EB9
:10005C00800E005C02E10C0E255C04E3FF0E256EA5
:06006C00FF0E266E1200DB
:100072000F0E3914026E02C000F0003600900036F6
:10008200009000C039F0C30EC2160050C212C282E4
:10009200C2A202D0C2DFFCD7030EC4143A6E3B6A7E
:1000A200000E3B16000E3B6E3AC001F0006A00C023
:1000B2003AF001C03BF0C3500026000E012200C0FE
:0800C2003AF001C03BF012000E
:1000CA000900F5CFE6FF0006FBE10106F9E112009F
:1000DA00FF0E156EFF0E166EFF0E176EFF0E186ED0
:1000EA00FF0E2F6EFF0E306E000E316E000E326E56
:1000FA00FF0E2B6EFF0E2C6E000E2D6E000E2E6E56
:10010A00FF0E276EFF0E286E000E296E000E2A6E55
:10011A00AC8A900EAB6E948E949C9EAA03D0AECFFE
:06012A0000F0FBD71200FB
:10013000376A386A800E3818006E800E005C02E163
:100140000C0E375CD8B0CBD0000E381802E10A0E86
:1001500037182FE137C039F08CDF00C035F001C00F
:1001600036F000C002F001C003F003320232039EF9
:1001700003BC038E03320232039E03BC038E02C013
:1001800035F003C036F0800E006E800E0318005C60
:1001900002E10250000804E3010E356E000E366ED7
:1001A000190E3724E16E000E3820E26E35C0E6FFEE
:1001B00092D0000E381802E10B0E371852E182B2CD
:1001C00002D0D88001D0D890036AD8B0032A03C0E7
:1001D00000F0000E016E003600900136010E001096
:1001E000046E01C005F0000E051282B402D0D88062
:1001F00001D0D890036AD8B0032A03C000F0000EE3
:10020000016E003600900136003600900136005035
:1002100004120150051282B602D0D88001D0D890C5
:10022000036AD8B0032A030E026E03C000F0000E6A
:10023000016E025005E0003600900136FF0FFAD73C
:10024000045000120550011200C035F001C036F014
:10025000190E3724E16E000E3820E26E00C0E6FF72
:100260003AD037C039F005DF00C035F001C036F0B4
:10027000800E026E800E0118025C02E10050FF0841
:1002800004E2FF0E356E000E366E800E006E800E9C
:100290003618005C02E13550000804E3010E356EAB
:1002A000000E366E190E3724D96E000E3820DA6E25
:1002B000DECF01F0800E006E800E3618005C02E189
:1002C0003550015C08E2190E3724E16E000E38202B
:1002D000E26E35C0E6FFA2DE374A382A2BD712007D
:1002E000FF0E926EFF0E966EFF0E936EBF0E946E13
:1002F000FE0E956E816A806A826A836AF26AF18E66
:10030000F098F096F00ED36E9B8CC280C16AB50E49
:10031000C06ED56A100EAF6EAC84DFDE240EAC6EFC
:10032000336A346A800E3418006E800E005C02E17D
:100330000C0E335C0AE2190E3324E16E000E3420F9
:10034000E26EE66A334A342AEDD7FF0E256EFF0EC1
:10035000266E8380090E0B6E1E0E0C6EE40E0D6E63
:100360000D2EFED70C2EFCD70B2EFAD70000839053
:10037000090E0B6E1E0E0C6EE40E0D6E0D2EFED7CA
:100380000C2EFCD70B2EFAD700008380090E0B6EC3
:100390001E0E0C6EE40E0D6E0D2EFED70C2EFCD72D
:1003A0000B2EFAD700008390090E0B6E1E0E0C6EFA
:1003B000E40E0D6E0D2EFED70C2EFCD70B2EFAD7A9
:1003C00000008380090E0B6E1E0E0C6EE40E0D6E87
:1003D0000D2EFED70C2EFCD70B2EFAD700008390E3
:1003E000090E0B6E1E0E0C6EE40E0D6E0D2EFED75A
:1003F0000C2EFCD70B2EFAD700008380090E0B6E53
:100400001E0E0C6EE40E0D6E0D2EFED70C2EFCD7BC
:0C0410000B2EFAD700008CDEFED7FFD7C1
:020000040030CA
:0D00010008191AFF0080FF3FC03FE03F409C
:00000001FF
