:10000000C3EF01F00000000000EF00F0000000006E
:0A0010000000000000000000F3D71C
:10001C00ACA21200FF0E1E1802E1FF0E1D1802E129
:10002C00AD6A11D0230E1D24006E000E1E20016E31
:10003C0000C0E9FF01C0EAFFEECFADFF00C0E1FF59
:10004C0001C0E2FFE66A1D4A1E2A800E1E18006ED1
:10005C00800E005C02E10B0E1D5C04E3FF0E1D6EB6
:06006C00FF0E1E6E1200E3
:100072000B6A0A6A096A00500402F4CF09F0F3CF4E
:1000820008F001500502F4CF0BF0F3CF0AF0005054
:100092000502F3500926F4500A22E86A0B220150A5
:1000A2000402F3500926F4500A22E86A0B2208C01F
:1000B20000F009C001F00AC002F00BC003F0120008
:1000C2000F0E3C14026E02C000F0003600900036A3
:1000D200009000C03CF0C30EC2160050C212C28291
:1000E200C2A202D09ADFFCD7030EC4143D6E3E6A50
:1000F200000E3E16000E3E6E3DC001F0006A00C0CA
:100102003DF001C03EF0C3500026000E012200C0A7
:080112003DF001C03EF01200B7
:10011A000900F5CFE6FF0006FBE10106F9E112004E
:10012A00FF0E196EFF0E1A6EFF0E1B6EFF0E1C6E6F
:10013A00FF0E156EFF0E166E000E176E000E186E6D
:10014A00FF0E1F6EFF0E206E000E216E000E226E35
:10015A00FF0E306EFF0E316E000E326E000E336EE1
:10016A00AC8A900EAB6E948E949C9EAA03D0AECFAE
:06017A0000F0FBD71200AB
:100180002EC000F02FC001F0070E046E000E056EA9
:1001900070DF00C03AF001C03BF00A0E3C6E91DF08
:1001A00000503A242E6E01503B202F6E030E006E3D
:1001B000005005E02F322E322F9EFF0FFAD7386AFB
:1001C000396A800E3918006E800E005C02E10B0E59
:1001D000385CD8B0D7D0000E391802E1090E3818B3
:1001E00040E138C03CF06DDF00C036F001C037F0B0
:1001F00000C002F001C003F003320232039E03BCD0
:10020000038E03320232039E03BC038E02C036F01B
:1002100003C037F0800E006E800E0318005C02E110
:100220000250000804E3010E366E000E376E230EF6
:100230003824D96E000E3920DA6EDECF01F0800E40
:10024000006E800E3718005C02E13650015C08E257
:10025000230E3824E16E000E3920E26E36C0E6FF30
:100260008DD0000E391802E10A0E381838E1036A01
:1002700082B0032A040E026E03C000F0000E016E6D
:10028000025005E0003600900136FF0FFAD7010E4C
:100290000010046E01C005F0000E0512036A82B260
:1002A000032A050E026E03C000F0000E016E02501C
:1002B00005E0003600900136FF0FFAD70450001217
:1002C0000550011200C036F001C037F0230E38246B
:1002D000E16E000E3920E26E00C0E6FF4FD038C05C
:1002E0003CF0EFDE00C036F001C037F02E50005C6D
:1002F000026E2F500158036E02C036F003C037F073
:10030000800E0318006E800E005C02E1000E025C9D
:1003100002E2366A376A800E006E800E3718005C83
:1003200002E13650FF0804E2FF0E366E000E376E13
:10033000800E006E800E3718005C02E13650000817
:1003400004E3010E366E000E376E230E3824D96E8C
:10035000000E3920DA6EDECF01F0800E006E800EC6
:100360003718005C02E13650015C08E2230E3824A5
:10037000E16E000E3920E26E36C0E6FF4FDE384AED
:06038000392A1FD712000C
:10038600FF0E926EFF0E966EFF0E936EBF0E946E6C
:10039600FE0E956E816A806A826A836AF26AF18EBF
:1003A600F098F096F00ED36E9B8CC280C16AB50EA3
:1003B600C06ED56A100EAF6EAC84B4DE240EAC6E81
:1003C600346A356A800E3518006E800E005C02E1D4
:1003D6000B0E345C0AE2230E3424E16E000E352047
:1003E600E26EE66A344A352AEDD7FF0E1D6EFF0E21
:1003F6001E6E0A0E3C6E62DE00C02EF001C02FF0AB
:100406008380090E0B6E1E0E0C6EE40E0D6E0D2E05
:10041600FED70C2EFCD70B2EFAD700008390090EC0
:100426000B6E1E0E0C6EE40E0D6E0D2EFED70C2EF0
:10043600FCD70B2EFAD700008380090E0B6E1E0E1A
:100446000C6EE40E0D6E0D2EFED70C2EFCD70B2E69
:10045600FAD700008390090E0B6E1E0E0C6EE40E8A
:100466000D6E0D2EFED70C2EFCD70B2EFAD70000E4
:100476008380090E0B6E1E0E0C6EE40E0D6E0D2E95
:10048600FED70C2EFCD70B2EFAD700008390090E50
:100496000B6E1E0E0C6EE40E0D6E0D2EFED70C2E80
:1004A600FCD70B2EFAD700008380090E0B6E1E0EAA
:1004B6000C6EE40E0D6E0D2EFED70C2EFCD70B2EF9
:0A04C600FAD700005ADEFED7FFD778
:020000040030CA
:0D00010008191AFF0080FF3FC03FE03F409C
:00000001FF
